{
  "abi": [
    {
      "type": "function",
      "name": "PRECISION",
      "inputs": [],
      "outputs": [
        {
          "name": "",
          "type": "uint256",
          "internalType": "uint256"
        }
      ],
      "stateMutability": "view"
    },
    {
      "type": "function",
      "name": "getPosition",
      "inputs": [
        {
          "name": "user",
          "type": "address",
          "internalType": "address"
        }
      ],
      "outputs": [
        {
          "name": "",
          "type": "tuple",
          "internalType": "struct PerpsMain.Position",
          "components": [
            {
              "name": "entryPrice",
              "type": "uint256",
              "internalType": "uint256"
            },
            {
              "name": "collateral",
              "type": "uint256",
              "internalType": "uint256"
            },
            {
              "name": "user",
              "type": "address",
              "internalType": "address"
            },
            {
              "name": "isLong",
              "type": "bool",
              "internalType": "bool"
            },
            {
              "name": "leverage",
              "type": "uint256",
              "internalType": "uint256"
            },
            {
              "name": "size",
              "type": "uint256",
              "internalType": "uint256"
            }
          ]
        }
      ],
      "stateMutability": "view"
    },
    {
      "type": "function",
      "name": "getProfitNLoss",
      "inputs": [
        {
          "name": "user",
          "type": "address",
          "internalType": "address"
        },
        {
          "name": "currentPrice",
          "type": "uint256",
          "internalType": "uint256"
        }
      ],
      "outputs": [
        {
          "name": "",
          "type": "int256",
          "internalType": "int256"
        }
      ],
      "stateMutability": "view"
    },
    {
      "type": "function",
      "name": "liquidate",
      "inputs": [
        {
          "name": "user",
          "type": "address",
          "internalType": "address"
        },
        {
          "name": "currentPrice",
          "type": "uint256",
          "internalType": "uint256"
        }
      ],
      "outputs": [],
      "stateMutability": "nonpayable"
    },
    {
      "type": "function",
      "name": "openingPosition",
      "inputs": [
        {
          "name": "_entryPrice",
          "type": "uint256",
          "internalType": "uint256"
        },
        {
          "name": "_collateral",
          "type": "uint256",
          "internalType": "uint256"
        },
        {
          "name": "_isLong",
          "type": "bool",
          "internalType": "bool"
        },
        {
          "name": "_leverage",
          "type": "uint256",
          "internalType": "uint256"
        }
      ],
      "outputs": [],
      "stateMutability": "nonpayable"
    },
    {
      "type": "function",
      "name": "positions",
      "inputs": [
        {
          "name": "",
          "type": "address",
          "internalType": "address"
        }
      ],
      "outputs": [
        {
          "name": "entryPrice",
          "type": "uint256",
          "internalType": "uint256"
        },
        {
          "name": "collateral",
          "type": "uint256",
          "internalType": "uint256"
        },
        {
          "name": "user",
          "type": "address",
          "internalType": "address"
        },
        {
          "name": "isLong",
          "type": "bool",
          "internalType": "bool"
        },
        {
          "name": "leverage",
          "type": "uint256",
          "internalType": "uint256"
        },
        {
          "name": "size",
          "type": "uint256",
          "internalType": "uint256"
        }
      ],
      "stateMutability": "view"
    },
    {
      "type": "function",
      "name": "price",
      "inputs": [],
      "outputs": [
        {
          "name": "",
          "type": "uint256",
          "internalType": "uint256"
        }
      ],
      "stateMutability": "view"
    },
    {
      "type": "function",
      "name": "setPrice",
      "inputs": [
        {
          "name": "_price",
          "type": "uint256",
          "internalType": "uint256"
        }
      ],
      "outputs": [],
      "stateMutability": "nonpayable"
    },
    {
      "type": "function",
      "name": "shouldLiquidate",
      "inputs": [
        {
          "name": "user",
          "type": "address",
          "internalType": "address"
        },
        {
          "name": "currentPrice",
          "type": "uint256",
          "internalType": "uint256"
        }
      ],
      "outputs": [
        {
          "name": "",
          "type": "bool",
          "internalType": "bool"
        }
      ],
      "stateMutability": "view"
    },
    {
      "type": "event",
      "name": "Liquidated",
      "inputs": [
        {
          "name": "user",
          "type": "address",
          "indexed": false,
          "internalType": "address"
        },
        {
          "name": "currentPrice",
          "type": "uint256",
          "indexed": false,
          "internalType": "uint256"
        }
      ],
      "anonymous": false
    },
    {
      "type": "event",
      "name": "positionOpened",
      "inputs": [
        {
          "name": "user",
          "type": "address",
          "indexed": false,
          "internalType": "address"
        },
        {
          "name": "size",
          "type": "uint256",
          "indexed": false,
          "internalType": "uint256"
        }
      ],
      "anonymous": false
    }
  ],
  "bytecode": {
    "object": "0x60806040526103e8600155348015610015575f80fd5b50610d98806100235f395ff3fe608060405234801561000f575f80fd5b5060043610610091575f3560e01c80639bd7db53116100645780639bd7db5314610146578063a00fbddb14610162578063a035b1fe14610192578063aaf5eb68146101b0578063bcbaf487146101ce57610091565b806316c1973914610095578063313d67a5146100c557806355f57510146100f557806391b7f5ed1461012a575b5f80fd5b6100af60048036038101906100aa91906107dd565b6101ea565b6040516100bc91906108c2565b60405180910390f35b6100df60048036038101906100da9190610905565b6102dc565b6040516100ec9190610952565b60405180910390f35b61010f600480360381019061010a91906107dd565b61035b565b60405161012196959493929190610989565b60405180910390f35b610144600480360381019061013f91906109e8565b6103be565b005b610160600480360381019061015b9190610a3d565b6103c8565b005b61017c60048036038101906101779190610905565b6104ee565b6040516101899190610ab9565b60405180910390f35b61019a610644565b6040516101a79190610ad2565b60405180910390f35b6101b861064a565b6040516101c59190610ad2565b60405180910390f35b6101e860048036038101906101e39190610905565b610656565b005b6101f2610737565b5f805f8473ffffffffffffffffffffffffffffffffffffffff1673ffffffffffffffffffffffffffffffffffffffff1681526020019081526020015f206040518060c00160405290815f820154815260200160018201548152602001600282015f9054906101000a900473ffffffffffffffffffffffffffffffffffffffff1673ffffffffffffffffffffffffffffffffffffffff1673ffffffffffffffffffffffffffffffffffffffff1681526020016002820160149054906101000a900460ff1615151515815260200160038201548152602001600482015481525050905080915050919050565b5f806102e884846104ee565b90505f8112801561034157505f808573ffffffffffffffffffffffffffffffffffffffff1673ffffffffffffffffffffffffffffffffffffffff1681526020019081526020015f20600101548161033e90610b18565b10155b15610350576001915050610355565b5f9150505b92915050565b5f602052805f5260405f205f91509050805f015490806001015490806002015f9054906101000a900473ffffffffffffffffffffffffffffffffffffffff16908060020160149054906101000a900460ff16908060030154908060040154905086565b8060018190555050565b5f81846103d59190610b5e565b90506040518060c001604052808681526020018581526020013373ffffffffffffffffffffffffffffffffffffffff1681526020018415158152602001838152602001828152505f803373ffffffffffffffffffffffffffffffffffffffff1673ffffffffffffffffffffffffffffffffffffffff1681526020019081526020015f205f820151815f0155602082015181600101556040820151816002015f6101000a81548173ffffffffffffffffffffffffffffffffffffffff021916908373ffffffffffffffffffffffffffffffffffffffff16021790555060608201518160020160146101000a81548160ff0219169083151502179055506080820151816003015560a082015181600401559050505050505050565b5f805f808573ffffffffffffffffffffffffffffffffffffffff1673ffffffffffffffffffffffffffffffffffffffff1681526020019081526020015f206040518060c00160405290815f820154815260200160018201548152602001600282015f9054906101000a900473ffffffffffffffffffffffffffffffffffffffff1673ffffffffffffffffffffffffffffffffffffffff1673ffffffffffffffffffffffffffffffffffffffff1681526020016002820160149054906101000a900460ff1615151515815260200160038201548152602001600482015481525050905080606001511561060e57805f01518160a00151825f0151856105f29190610b9f565b6105fc9190610bdf565b6106069190610c82565b91505061063e565b805f01518160a0015184835f01516106269190610b9f565b6106309190610bdf565b61063a9190610c82565b9150505b92915050565b60015481565b670de0b6b3a764000081565b61066082826102dc565b61069f576040517f08c379a000000000000000000000000000000000000000000000000000000000815260040161069690610d44565b60405180910390fd5b5f808373ffffffffffffffffffffffffffffffffffffffff1673ffffffffffffffffffffffffffffffffffffffff1681526020019081526020015f205f8082015f9055600182015f9055600282015f6101000a81549073ffffffffffffffffffffffffffffffffffffffff02191690556002820160146101000a81549060ff0219169055600382015f9055600482015f905550505050565b6040518060c001604052805f81526020015f81526020015f73ffffffffffffffffffffffffffffffffffffffff1681526020015f151581526020015f81526020015f81525090565b5f80fd5b5f73ffffffffffffffffffffffffffffffffffffffff82169050919050565b5f6107ac82610783565b9050919050565b6107bc816107a2565b81146107c6575f80fd5b50565b5f813590506107d7816107b3565b92915050565b5f602082840312156107f2576107f161077f565b5b5f6107ff848285016107c9565b91505092915050565b5f819050919050565b61081a81610808565b82525050565b610829816107a2565b82525050565b5f8115159050919050565b6108438161082f565b82525050565b60c082015f82015161085d5f850182610811565b5060208201516108706020850182610811565b5060408201516108836040850182610820565b506060820151610896606085018261083a565b5060808201516108a96080850182610811565b5060a08201516108bc60a0850182610811565b50505050565b5f60c0820190506108d55f830184610849565b92915050565b6108e481610808565b81146108ee575f80fd5b50565b5f813590506108ff816108db565b92915050565b5f806040838503121561091b5761091a61077f565b5b5f610928858286016107c9565b9250506020610939858286016108f1565b9150509250929050565b61094c8161082f565b82525050565b5f6020820190506109655f830184610943565b92915050565b61097481610808565b82525050565b610983816107a2565b82525050565b5f60c08201905061099c5f83018961096b565b6109a9602083018861096b565b6109b6604083018761097a565b6109c36060830186610943565b6109d0608083018561096b565b6109dd60a083018461096b565b979650505050505050565b5f602082840312156109fd576109fc61077f565b5b5f610a0a848285016108f1565b91505092915050565b610a1c8161082f565b8114610a26575f80fd5b50565b5f81359050610a3781610a13565b92915050565b5f805f8060808587031215610a5557610a5461077f565b5b5f610a62878288016108f1565b9450506020610a73878288016108f1565b9350506040610a8487828801610a29565b9250506060610a95878288016108f1565b91505092959194509250565b5f819050919050565b610ab381610aa1565b82525050565b5f602082019050610acc5f830184610aaa565b92915050565b5f602082019050610ae55f83018461096b565b92915050565b7f4e487b71000000000000000000000000000000000000000000000000000000005f52601160045260245ffd5b5f610b2282610aa1565b91507f80000000000000000000000000000000000000000000000000000000000000008203610b5457610b53610aeb565b5b815f039050919050565b5f610b6882610808565b9150610b7383610808565b9250828202610b8181610808565b91508282048414831517610b9857610b97610aeb565b5b5092915050565b5f610ba982610aa1565b9150610bb483610aa1565b925082820390508181125f8412168282135f851215161715610bd957610bd8610aeb565b5b92915050565b5f610be982610aa1565b9150610bf483610aa1565b9250828202610c0281610aa1565b91507f800000000000000000000000000000000000000000000000000000000000000084145f84121615610c3957610c38610aeb565b5b8282058414831517610c4e57610c4d610aeb565b5b5092915050565b7f4e487b71000000000000000000000000000000000000000000000000000000005f52601260045260245ffd5b5f610c8c82610aa1565b9150610c9783610aa1565b925082610ca757610ca6610c55565b5b60015f0383147f800000000000000000000000000000000000000000000000000000000000000083141615610cdf57610cde610aeb565b5b828205905092915050565b5f82825260208201905092915050565b7f4e6f74206c6971756964617461626c65000000000000000000000000000000005f82015250565b5f610d2e601083610cea565b9150610d3982610cfa565b602082019050919050565b5f6020820190508181035f830152610d5b81610d22565b905091905056fea264697066735822122075ce34f1d6afc67e3f894b9fbf5f05c8cce1586918a9c6cc02954eeea7abb2c364736f6c63430008140033",
    "linkReferences": {}
  },
  "methodIdentifiers": {
    "PRECISION()": "aaf5eb68",
    "getPosition(address)": "16c19739",
    "getProfitNLoss(address,uint256)": "a00fbddb",
    "liquidate(address,uint256)": "bcbaf487",
    "openingPosition(uint256,uint256,bool,uint256)": "9bd7db53",
    "positions(address)": "55f57510",
    "price()": "a035b1fe",
    "setPrice(uint256)": "91b7f5ed",
    "shouldLiquidate(address,uint256)": "313d67a5"
  },
  "id": 0
}